:020000020000FC
:10000000E3C0F8940F931F932F9320E314ED00E0C7
:10001000015010402040E0F72F911F910F917894EC
:100020000895F8940F931F932F9328E11AE600E0A8
:10003000015010402040E0F72F911F910F917894CC
:100040000895F8940F931F932F9329E014EC00E088
:10005000015010402040E0F72F911F910F917894AC
:100060000895F8940F931F932F9324E012EE00E06D
:10007000015010402040E0F72F911F910F9178948C
:1000800008951F93D09AD19AD89AD99A11E013BFA4
:100090001F9108953F9330E032BF32B7303AE8F312
:1000A0003F910895D898F6DFD9980895D898F2DF4F
:1000B000D99AF0DFD89AEEDF089511E013BFEADF96
:1000C00018E08894001F08F410F0D89802C0D89A5D
:1000D00000C0E0DFD99ADEDFD9981A9591F7D89A57
:1000E000D9DFD99AD7DF19B31170D9980895089537
:1000F000C8DF2F932EEA26D025ED24D020E822D089
:100100002DE820D024E11ED020E21CD021E01AD01E
:1001100021EA18D028EC16D021E814D02FE712D00D
:100120002BED10D020E40ED026EA0CD02AED0AD018
:1001300022E008D028EA06D02FE104D02FEA02D02E
:100140002F9108950F93AEDF08E7B7DF00E0B5DF2A
:10015000022FB3DFABDF0F9108950F93A3DF08E702
:10016000ACDF00E4AADF022FA8DFA0DF0F91089523
:100170000F9300ECA2DF022FA0DF0F9108952F93C1
:1001800021E2E0DF20E0DEDF2FE7DCDF22E2DADF62
:1001900020E0D8DF23E0D6DF2F9108952F934F93EF
:1001A000EEDF80DF08E789DF4FEF20E0E1DFE0DF0F
:1001B0004A95E9F74FEF20E0DBDFDADF4A95E9F710
:1001C00075DF4F912F9108950FED0DBFE0E6F0E040
:1001D00000270193E03EE9F7EDE1FF27F083EA9580
:1001E000E9F7EE27FF274DDF83DF01D0FFCF2F9305
:1001F0004F93C5DF57DF08E760DF4FEF2AEAB8DF2C
:10020000B7DF4A95E9F74FEF2FEFB2DFB1DF4A953D
:0A021000E9F74CDF4F912F9108959C
:00000001FF
