:020000020000FC
:0200000083C0BB
:10000E0000C01FD041E01895546573742057617479
:10001E006368446F672074696D6572206F6E20414E
:10002E005474696E79383800F894A8950091600080
:10003E0008650093600007E0086400936000789400
:10004E000895F894A89504B7007004BF009160005D
:10005E0008610093600000E00093600078940895BA
:10006E000F931F932F933F933FB7F89420E314ED14
:10007E0000E0015010402040E0F73FBF3F912F912C
:10008E001F910F910895F8940F931F932F933F9301
:10009E003FB7F89428E11AE600E0015010402040E6
:1000AE00E0F73FBF3F912F911F910F9108950F934E
:1000BE001F932F933F933FB7F89424E012EE00E086
:1000CE00015010402040E0F73FBF3F912F911F910C
:1000DE000F9108950F931F932F933F933FB7F8946B
:1000EE0020E01DE700E0015010402040E0F73FBF48
:1000FE003F912F911F910F9108950FEF0DBF02E0C9
:10010E000EBFE0E0F1E000270193F330E9F7F330A2
:10011E00D9F7E030C9F7EDE1FF27F083EA95E9F76B
:10012E00EE27FF27509A40E07FDF589AC0DF58989D
:0A013E0001E04013A8DFBBDFF8CF9B
:00000001FF
