:020000020000FC
:10000000EEC00F931F932F933F933FB7F89420E3D5
:1000100014ED00E0015010402040E0F73FBF3F9159
:100020002F911F910F910895F8940F931F932F9381
:100030003F933FB7F89428E11AE600E001501040E2
:100040002040E0F73FBF3F912F911F910F910895FE
:100050000F931F932F933F933FB7F89424E012EE32
:1000600000E0015010402040E0F73FBF3F912F914A
:100070001F910F9108950F931F932F933F933FB7B5
:10008000F89420E01DE700E0015010402040E0F728
:100090003FBF3F912F911F910F9108951F931127FB
:1000A0001093B90010E01093B8003C9A3D9A449A1E
:1000B000459A1F9108950F9304EA0093BC000CD059
:1000C0000F9108950F9304E90093BC000091BC00C8
:1000D00004FDFCCF0F9108950091BC0007FFFCCFF9
:1000E00008951F930093BB0014E81093BC00F4DF45
:1000F0001F9108950F93413009F002C004EC01C034
:1001000004E80093BC00E8DF1091BB000F91089554
:100110000F93000FE6DFE0DF0F910895BFDF2F930D
:100120002EEA26D025ED24D020E822D02DE820D0BC
:1001300024E11ED020E21CD021E01AD021EA18D000
:1001400028EC16D021E814D02FE712D02BED10D0D8
:1001500020E40ED026EA0CD02AED0AD022E008D006
:1001600028EA06D02FE104D02FEA02D02F9108957B
:100170000F93A1DF08E7B5DF00E0B3DF022FB1DFA7
:10018000A1DF0F9108950F9396DF08E7AADF00E43F
:10019000A8DF022FA6DF96DF0F9108950F9301E2EB
:1001A000E7DF00E0E5DF0FE7E3DF02E2E1DF00E0A9
:1001B000DFDF03E0DDDF0F9108952F934F93EEDF34
:1001C0004FEF20E0E0DFDFDF4A95E9F74FEF20E077
:1001D000DADFD9DF4A95E9F74F912F9108950FEFB4
:1001E0000DBF02E00EBFE0E0F1E000270193F33025
:1001F000E9F7E030D9F7EDE1FF27F083EA95E9F779
:10020000EE27FF278BDFD9DF01D0FFCF2F934F934E
:10021000C5DF4FEF2AEAB7DFB6DF4A95E9F74FEFC0
:100220002FEFB1DFB0DF4A95E9F74F912F91089595
:00000001FF
