:020000020000FC
:0200000037C007
:020018001EC008
:10002C0000C00F931F930FB70F930CB1003019F44E
:10003C0010E119BF05C0112719BFC49852D0C49A3A
:10004C000F910FBF1F910F911895F894FDBCFCBC3C
:10005C001A3A11F01AEA01C015E5012FC49841D0E3
:10006C00C49A18950FE50DBF04E00EBFE0E6F0E072
:10007C0000270193F430E9F7E036D9F7EDE1FF27DB
:10008C00F083EA95E9F7EE27FF27F89425D012D0F4
:10009C0000E109BF04E00EBDBAE7BBBDA2E1AABDF9
:1000AC00FDBCFCBC00EB07BB00E108BB1AEA0FEF80
:1000BC007894FFCF09E109B900E000BDFBB808E96D
:1000CC000AB906E800BD08955D9BFECF0CB90895F2
:1000DC005F9BFECF0CB1089501E50DB901E00EB99F
:0C00EC0008950FB9779BFECF0FB1089567
:00000001FF
