:020000020000FC
:100000007EC00A48656C6C6F2042726F210A417293
:100010006520796F752066696E653F0A0A0003D016
:10002000BC9AC49A08951F9312E013BF1F910895BC
:100030001F93F9DFC49810D018E08894079508F44E
:1000400010F0C49802C0C49A00C006D01A95A9F74F
:10005000C49A02D01F9108953F9330E032BF32B767
:100060003F3CE8F33F9108950F930491003029F04D
:10007000DFDFE39508F4F395F8CF0F910895F89436
:100080000F931F932F9320E314ED00E001501040D5
:100090002040E0F72F911F910F9178940895F894E4
:1000A0000F931F932F9328E11AE600E001501040B0
:1000B0002040E0F72F911F910F9178940895F894C4
:1000C0000F931F932F9329E014EC00E00150104090
:1000D0002040E0F72F911F910F9178940895F894A4
:1000E0000F931F932F9324E012EE00E00150104075
:1000F0002040E0F72F911F910F91789408950FED14
:100100000DBFE0E6F0E000270193F030E9F7E03EB4
:10011000D9F7EDE1FF27F083EA95E9F7EE27FF270E
:10012000D39A7DDFE2E0F0E09FDFB9DFDB9AB7DF53
:04013000DB98F8CF91
:00000001FF
