:020000020000FC
:100000000AC10AD09FD0BED0B8D181D0BA2049321F
:100010004320D183D181D182D180D0BED0B9D181CA
:10002000D182D0B2D0B020D0BDD0B0D187D0B0D0A6
:10003000BBD181D18F21200A0A00D090D0B4D180C9
:10004000D0B5D18120D183D181D182D180D0BED011
:10005000B9D181D182D0B2D0B03A20306200D09DE7
:10006000D0B5D18220D0BDD0B0D0B9D0B4D0B5D029
:10007000BDD0BDD18BD18520D183D181D182D1801A
:10008000D0BED0B9D181D182D0B221000A0AD09F8E
:10009000D0BED0B8D181D0BA2049324320D183D14B
:1000A00081D182D180D0BED0B9D181D182D0B220CD
:1000B000D0B7D0B0D0B2D0B5D180D188D191D0BD99
:1000C000210A0A00F8940F931F932F9328E11AE650
:1000D00000E0015010402040E0F72F911F910F9158
:1000E00078940895F8940F931F932F932CE015E3C1
:1000F00000E0015010402040E0F72F911F910F9138
:1001000078940895F8940F931F932F9324E012EEA0
:1001100000E0015010402040E0F72F911F910F9117
:1001200078940895F8940F931F932F9322E011E78A
:1001300000E0015010402040E0F72F911F910F91F7
:10014000789408950F931F932F933F933FB7F8949C
:1001500020E01EE300E8015010402040E0F73FBFE0
:100160003F912F911F910F9108950F931F93F2B913
:10017000E9B902E00BB908E10AB90EE003B91F9131
:100180000F9108951F935D9BFECF0CB91F910895A9
:100190001F935F9BFECF0CB11F9108950591003016
:1001A00011F0F0DFFBCF08951F938A9A8B9A929AF1
:1001B000939A11E013BF1F9108953F9330E032BF2F
:1001C00032B73035E8F33F9108959298F6DF93986F
:1001D00008959298F2DF939AF0DF929AEEDF0895F5
:1001E00011E013BFEADF18E08894001F08F410F054
:1001F000929802C0929A00C0E0DF939ADEDF939853
:100200001A9591F7929AD9DF939AD7DF10B31470A9
:100210009398089508950FED0DBFE0E6F0E00027F4
:100220000193E03EE9F7EDE1FF27F083EA95E9F776
:10023000EE27FF27E7E6F0E098DFE2E0F0E0AEDF50
:10024000B3DF01D0FFCF0F931F932F933F9338E07D
:100250002227BBDF022F000FC3DF171739F0B9DFEA
:100260002395203808F4F5CF222711C0B2DFEAE346
:10027000F0E094DF8894221F08F403C000E382DFDB
:1002800002C001E37FDF3A95303021F0F3CFEEE595
:10029000F0E084DFECE8F0E081DF3F912F911F91E7
:0402A0000F9108951D
:00000001FF
