:020000020000FC
:0200000057C0E7
:10002C0000C00F931F931FB7F8940027009385000F
:10003C0000938400401301C001C04A951FBF1F915B
:10004C000F911895F8940F931F932F9321E618EAAC
:10005C0000E0015010402040E0F72F911F910F91CC
:10006C0078940895F8940F931F932F9320E314ED35
:10007C0000E0015010402040E0F72F911F910F91AC
:10008C0078940895F8940F931F932F9329E014EC10
:10009C0000E0015010402040E0F72F911F910F918C
:1000AC00789408954FEF4DBF48E04EBFE0E0F1E08B
:1000BC0000270193F930E9F7E030D9F7EDE1FF279C
:1000CC00F083EA95E9F7EE27FF270ED0789440E20B
:1000DC0044B92D9A4AE004D02D984AE501D0F9CFC5
:1000EC0000274013FDCF089502E000936F0003E05A
:1000FC000093810001E00093890004EF00938800D5
:10010C000027009385000093840008952D9ABADF90
:06011C002D98B8DFFBCFB7
:00000001FF
