:020000020000FC
:10000000B1C00A48656C6C6F2042726F210A417260
:100010006520796F752066696E653F0A0A001F9337
:1000200012E01ABD11E013BF18E219BDBC9AC49AC0
:100030001F9108951F93F3DFC49810D018E088949F
:10004000079508F410F0C49802C0C49A00C006D006
:100050001A95A9F7C49A02D01F9108953F9330E0F2
:1000600032BF32B73832E8F33F9108950F930591CC
:10007000003011F0DFDFFBCF0F9108950F931F9336
:100080002F933F933FB7F8942EE114E800E8015016
:1000900010402040E0F73FBF3F912F911F910F91FB
:1000A0000895F8940F931F932F933F933FB7F894BD
:1000B0002FE012E400E4015010402040E0F73FBF81
:1000C0003F912F911F910F910895F8940F931F93D3
:1000D0002F933F933FB7F89427E011EA00E20150D5
:1000E00010402040E0F73FBF3F912F911F910F91AB
:1000F00008950F931F932F933F933FB7F89423E0F6
:100100001DE000E4015010402040E0F73FBF3F9168
:100110002F911F910F9108950F931F932F933F934A
:100120003FB7F89421E016E800EA01501040204063
:10013000E0F73FBF3F912F911F910F9108950F93CB
:100140001F932F933F933FB7F89420E01EE400E203
:10015000015010402040E0F73FBF3F912F911F9189
:100160000F9108950FE50DBF02E00EBFE0E6F0E04D
:1001700000270193F230E9F7E036D9F7EDE1FF27E8
:10018000F083EA95E9F7EE27FF27B99A48DFE2E026
:0E019000F0E06CDF86DFC19A84DFC198F8CF03
:00000001FF
