:020000020000FC
:100000007CC00F931F932F933F933FB7F89420E347
:1000100014ED00E0015010402040E0F73FBF3F9159
:100020002F911F910F910895F8940F931F932F9381
:100030003F933FB7F89428E11AE600E001501040E2
:100040002040E0F73FBF3F912F911F910F910895FE
:100050000F931F932F933F933FB7F89424E012EE32
:1000600000E0015010402040E0F73FBF3F912F914A
:100070001F910F9108950F931F932F933F933FB7B5
:10008000F89420E01DE700E0015010402040E0F728
:100090003FBF3F912F911F910F9108950F931F9391
:1000A0002F932FE224B920E513E0011711F420600B
:1000B0000BC012E0011711F4216006C011E0011716
:1000C00011F4226001C023602CBD20E02DBD2F91D2
:1000D0001F910F9108950F930EBD00000DB507FFFE
:1000E000FDCF0F91089510E114B910E41CBD0895DF
:1000F0000DB507FFFDCF0EB508950FEF0DBF02E060
:100100000EBFE0E0F1E000270193F330E9F7E030C3
:10011000D9F7EDE1FF27F083EA95E9F7EE27FF270E
:1001200002E0BCDF08D07AD06CDF34D06ADF76D052
:1001300068DF4BD0FFCF28989EDF289A29980EEAD7
:1001400025D005ED23D000E821D00DE81FD004E133
:100150001DD000E21BD001E019D001EA17D008EC55
:1001600015D001E813D00FE711D00BED0FD000E44C
:100170000DD006EA0BD00AED09D002E107D008EA5B
:1001800005D00FE303D00FEA01D008952A98A3DF2A
:100190002A9A089535D0299A4FEF0FEFF7DFF6DF4F
:1001A0004A95E9F74FEF0FEFF1DFF0DF4A95E9F7F6
:1001B0004FEF0FEFEBDFEADF4A95E9F74FEF0FEF75
:1001C000E5DFE4DF4A95E9F708951AD0299A4FEF61
:1001D0000AEADCDFDBDF4A95E9F74FEF0AEAD6DF10
:1001E000D5DF4A95E9F74FEF0AEAD0DFCFDF4A952E
:1001F000E9F74FEF0AEACADFC9DF4A95E9F7089540
:10020000299801E2C3DF00E0C1DF0FE7BFDF02E2B0
:10021000BDDF00E0BBDF07E0B9DF0895F1DF299A19
:100220004FEF00E0B3DFB2DF4A95E9F74FEF00E0B0
:10023000ADDFACDF4A95E9F74FEF00E0A7DFA6DFBF
:100240004A95E9F74FEF00E0A1DFA0DF4A95E9F713
:0202500008950F
:00000001FF
