:020000021000EC
:10007400B7170240E10798431367470198C3B717BE
:1000840001409387078098437D783D08B376070144
:1000940013070033558F98C3B7170140910798434E
:1000A400370810FF7D18B376070137073000558FE6
:1000B40098C3B7170140B10798430968334707014C
:1000C40098C3372509001305057C2528B717014077
:1000D4009387C78098431347270098C3372509009F
:1000E4001305057C3928B71701409387C7809843C7
:1000F4001347470098C3372509001305057C1120D1
:080104004DBF7D157DFD8280D9
:04110C0000000000DF
:040000031000007475
:00000001FF
