:020000021000EC
:10005400B71702409387870198431367470198C3F2
:10006400B717014093870780984337F8FFFF1308B9
:10007400F800B376070113070033558F98C3B717F9
:100084000140938747009843370810FF1308F8FF8F
:10009400B376070137073000558F98C3B71701406F
:1000A4009387C700984309683347070198C337A566
:1000B4000700130505122528B71701409387C78049
:1000C40098431347270098C337A507001305051263
:1000D4003928B71701409387C780984313474700CF
:1000E40098C337A5070013050512112045BF7D15D8
:0400F4007DFD82808C
:040000031000005495
:00000001FF
