:020000020000FC
:1000000093C0546573742055534152542054726107
:100010006E736D69742D52657365697665206F6EB8
:100020002041546D656761333238702F4C47543826
:100030004633323850000A48656C6C6F20D0A7D028
:10004000B5D0BB210A0AD0A7D182D0BED0B1D18B06
:1000500020D0B2D0BAD0BBD18ED187D0B8D182D186
:100060008C204C45442C20D0BFD180D0B8D188D032
:10007000BBD0B820310AD0A7D182D0BED0B1D18BAD
:1000800020D0BFD0BED0B3D0B0D181D0B8D182D132
:100090008C204C45442C20D0BFD180D0B8D188D002
:1000A000BBD0B820300A0A004C454420D0B2D0BAA8
:1000B000D0BBD18ED187D0B5D0BD210A0A004C4526
:1000C0004420D0BFD0BED0B3D0B0D188D0B5D0BD41
:1000D000210A0A000F931F930093C4001093C500D8
:1000E00002E00093C00008E10093C10006E0009325
:1000F000C2001F910F9108951F931091C00015FF2A
:10010000FCCF1F910093C60008951F931091C0006B
:1001100017FFFCCF1F910091C60008950591003094
:1001200011F0EADFFBCF08951FEF1DBF18E01EBFDF
:10013000E0E0F1E000270193F930E9F7E030D9F78A
:10014000EDE1FF27F083EA95E9F7EE27FF2700E8C6
:100150000093610000E000936100259A01E210E045
:10016000B9DFE6E3F0E0DADFD0DF0A30E9F30D30A3
:10017000D9F3013319F0003331F009C02D9AE8EAC0
:10018000F0E0CCDF04C02D98EEEBF0E0C7DFECCF61
:00000001FF
