:020000020000FC
:0200000068C0D6
:1000100085C05465737420454550524F4D2052653C
:1000200061642D5772697465206F6E2041546D654F
:100030006761333238702F4C47543846333238506A
:1000400000002F933F93E199FCCF2FB730E03CBBEA
:100050001EBB0DBBF894E29AE19A2FBF3F912F91FE
:100060000895E199FECF1EBBE09A000000000DB399
:100070000895F8940F931F932F932DE11CE400E053
:10008000015010402040E0F72F911F910F9178947C
:100090000895F8940F931F932F932EE016EA00E033
:1000A000015010402040E0F72F911F910F9178945C
:1000B0000895F8940F931F932F9322E01EEE00E013
:1000C000015010402040E0F72F911F910F9178943C
:1000D00008950FE90DBFE0E6F0E000270193F0304E
:1000E000E9F7E03AD9F7EDE1FF27F083EA95E9F780
:1000F000EE27FF27B99A10E0B4DF40E03FE7031393
:1001000002C041E003C010E00FE79BDFC19AD1DFDE
:0E011000C19801E04013BDDFCCDFF8CF189599
:00000001FF
