:100000006F00200D000000009C0000009E0000001A
:1000100000000000000000000000000000000000E0
:1000200000000000000000000000000000000000D0
:10003000A000000000000000A2000000000000007E
:10004000A4000000A6000000A8000000AA00000014
:10005000AC000000AE000000B0000000B2000000E4
:10006000B4000000B6000000B8000000BA000000B4
:10007000BC000000BE000000C0000000C200000084
:10008000C4000000C6000000C8000000CA00000054
:0C009000CC000000CE000000D0000000FA
:10009C0001A001A001A001A001A001A001A001A04C
:1000AC0001A001A001A001A001A001A001A001A03C
:1000BC0001A001A001A001A001A001A001A001A02C
:1000CC0001A001A001A0970100209381E17213818E
:1000DC00010013050018970500209385E5F117061C
:1000EC000020130666F163FAC5008322050023A0E5
:1000FC00550011059105E3EAC5FE1705002013050F
:10010C00A5EF97050020938525EF6377B500232095
:10011C0005001105E36DB5FE9302000873900230E3
:10012C008D4273904280970200009382E2EC93E23E
:10013C0032007390523009289702000093822201FA
:10014C0073901234730020308280B7120240938275
:10015C00C2002FA30210136303022FA30218B712BD
:10016C000140938202402FA30210136333002FA38C
:04017C000218828063
:00000001FF
