:020000020000FC
:10000000F7C04F4C454420535344313330362049D8
:100010003243206F6E2041546D6567613332387012
:100020006200F8940F931F932F9328E11AE600E0E3
:10003000015010402040E0F72F911F910F917894CC
:100040000895F8940F931F932F932CE015E300E08D
:10005000015010402040E0F72F911F910F917894AC
:100060000895F8940F931F932F9322E011E700E077
:10007000015010402040E0F72F911F910F9178948C
:1000800008951F9311271093B9000093B8003C9A6C
:100090003D9A449A459A1F9108950F9304EA00935C
:1000A000BC000CD00F9108950F9304E90093BC009D
:1000B0000091BC0004FDFCCF0F9108950091BC009D
:1000C00007FFFCCF08951F930093BB0014E8109323
:1000D000BC00F4DF1F9108950F93413009F002C076
:1000E00004EC01C004E80093BC00E8DF1091BB0001
:1000F0000F9108950F93000FE6DFE0DF0F91089551
:10010000C0DF2F932EEA26D025ED24D020E822D080
:100110002DE820D024E11ED020E21CD020E01AD00F
:1001200021EA18D028EC16D021E814D02FE712D0FD
:100130002BED10D020E40ED026EA0CD02AED0AD008
:1001400022E108D028EA06D02FE304D02FEA02D01B
:100150002F9108950F93A1DF08E7B5DF00E0B3DF2B
:10016000022FB1DFA1DF0F9108950F9396DF08E70B
:10017000AADF00E4A8DF022FA6DF96DF0F91089523
:100180000F9300ECA0DF022F9EDF0F9108952F93B5
:1001900021E2E0DF20E0DEDF2FE7DCDF22E2DADF52
:1001A00020E0D8DF27E0D6DF2F9108952F934F93DB
:1001B000EEDF73DF08E787DF4FEF20E0E1DFE0DF0E
:1001C0004A95E9F74FEF20E0DBDFDADF4A95E9F700
:1001D0004FEF20E0D5DFD4DF4A95E9F74FEF20E07D
:1001E000CFDFCEDF4A95E9F75FDF4F912F9108957A
:1001F0000FEF0DBF08E00EBFE0E0F1E00027019334
:10020000F930E9F7E030D9F7EDE1FF27F083EA951F
:10021000E9F7EE27FF2774DFC9DF03DF01D0FFCF47
:100220002F934F93B4DF39DF08E74DDF4FEF2FEF08
:10023000A7DFA6DF4A95E9F74FEF2FEFA1DFA0DF99
:100240004A95E9F74FEF2FEF9BDF9ADF4A95E9F7E1
:100250004FEF2FEF95DF94DF4A95E9F725DF4F91B8
:040260002F9108953D
:00000001FF
