:020000020000FC
:100000000DC1200AD09FD0BED0B8D181D0BA20492E
:10001000324320D183D181D182D180D0BED0B9D119
:1000200081D182D0B2D0B020D0BDD0B0D187D0B0F5
:10003000D0BBD181D18F210A0A00D090D0B4D18019
:10004000D0B5D18120D183D181D182D180D0BED011
:10005000B9D181D182D0B2D0B03A20306200D09DE7
:10006000D0B5D18220D0BDD0B0D0B9D0B4D0B5D029
:10007000BDD0BDD18BD18520D183D181D182D1801A
:10008000D0BED0B9D181D182D0B221000A0AD09F8E
:10009000D0BED0B8D181D0BA2049324320D183D14B
:1000A00081D182D180D0BED0B9D181D182D0B220CD
:1000B000D0B7D0B0D0B2D0B5D180D188D191D0BD99
:1000C000210A0A000AD09DD0B5D0BFD180D0B5D0CA
:1000D000B4D0B2D0B8D0B4D0B5D0BDD0BDD0B0D1EE
:1000E0008F20D0BED188D0B8D0B1D0BAD0B0210A3C
:1000F0000A00F8940F931F932F9320E314ED00E070
:10010000015010402040E0F72F911F910F917894FB
:100110000895F8940F931F932F9328E11AE600E0B7
:10012000015010402040E0F72F911F910F917894DB
:100130000895F8940F931F932F9324E012EE00E09C
:10014000015010402040E0F72F911F910F917894BB
:1001500008950F931F930093C4001093C50002E00D
:100160000093C00008E10093C10006E00093C200C4
:100170001F910F9108951F931091C00015FFFCCFA0
:100180001F910093C60008951F931091C00017FFA0
:10019000FCCF1F910091C60008950591003011F029
:1001A000EADFFBCF08951F9311271093B900009346
:1001B000B8001F9108950F9304EA0093BC000CD07F
:1001C0000F9108950F9304E90093BC000091BC00C7
:1001D00004FDFCCF0F9108950091BC0007FFFCCFF8
:1001E00008951F930093BB0014E81093BC00F4DF44
:1001F0001F9108950F93913009F002C004EC01C0E3
:1002000004E80093BC00E8DF1091BB000F91089553
:100210000F93000FE6DFE0DF0F9108954FEF4DBF22
:1002200048E04EBF40E244B90FEC10E092DFE2E05C
:10023000F0E0B3DF08E4B7DF01D0FFCF0F931F93E7
:100240002F9318E02227B7DF0091B900087F08300C
:1002500009F404C0003109F401C029C0022FD8DF1D
:100260000091B900087F083139F0ACDF23952038C0
:1002700008F4E9CF222711C0A5DFEAE3F0E08DDF23
:100280008894221F08F403C000E375DF02C001E375
:1002900072DF1A95103021F0F3CFEEE5F0E07DDF4C
:1002A000ECE8F0E07ADF2F911F910F910895E4ECD4
:0E02B000F0E073DF2D9A3DDF2D983BDFFBCF92
:00000001FF
