:020000040800F2
:1000000000000220450000084100000841000008EF
:100010004100000841000008410000080000000005
:100020000000000000000000000000004100000887
:1000300041000008000000004100000855020008CF
:10004000FEE7000000F0ACF800F00DF900F0F8F960
:1000500000F06DFA4FF00A014FF00E004FF0010270
:1000600000F094FA01F103014A29F9D419A400F02F
:100070001BF94FF028004FF01001394C4FF00805E4
:1000800000F02EF94FF000004FF000014FF0010298
:100090004FF02F034FF0530400F07BF900F053FAB8
:1000A0004FF000004FF001012E4A11602E4A2F4BF5
:1000B000146843EA040313602D4A116000F004F849
:1000C000106000F001F8F8E701B54FF0FA0000F019
:1000D000D6F801BD0102000C0001000000D50105A9
:1000E00000130000000000C00102001A000100001F
:1000F00000C1010500210000000000D0010200281D
:100100000001000000C00105002F0000000000D524
:10011000010200360001000000C00105003D0000A2
:10012000000000C1010200440001000000D00110E5
:100130000014000100000053544D333246340118BE
:1001400000260001000000CDC00120000A000100CF
:100150000000C0D1D1C5CCC1CBC5D0C500000000C6
:10016000D3C2B1A01C064742001C02401000000090
:100170008882434203B40748016841F080710160FE
:100180000548016841F001010160704703480068BB
:1001900070470000FCED00E0001000E0041000E0FB
:1001A00000B5244F396841F4803139604FF00100C7
:1001B00007F10006204A00F034F8396C41F0805114
:1001C00039641E490A6842F480420A60B96841F005
:1001D0000001B960B96841F40041B960B96841F4FF
:1001E000A051B96016497960396841F08071396071
:1001F00000F10100134A00F014F8134A1168134982
:100200001160B96821F0030141F00201B96000F109
:10021000010007F108060E4A00F003F84FF0000055
:1002200007E000EB0033013B03D034681442FAD0FE
:10023000704700BD0038024000000200007000401E
:10024000042A400700000002003C024005070000AD
:100250000800000003B50F49086850F000001CBFFB
:100260000138086003BD03B50B480C4941600C49D7
:1002700001600C48016A41F47041016203BD06B59A
:10028000054A906003490860086850F00000FBD1FF
:1002900006BD00000000002010E000E03F900200DA
:1002A0000700000000ED00E01FB514F8013B002B33
:1002B00015D0012B01BF34F8020B34F8021B54F89F
:1002C000022B14F8013B00F0ABFA01F107015429AD
:1002D000EBD44FF0000100F108003028E5D41FBD39
:1002E000FFB505F101054FF00807234603F0704301
:1002F0004FEA04144FEA13730A2B4CBF30333733E1
:100300004FF00006AF4244BF073600F089FA31448F
:10031000013FEAD1FFBD2DE9FF434FF000054FF04B
:100320000007A14205D047BF651A01270D1B4FF0FA
:10033000FF374FF000064FF00008984206D047BF45
:100340001E1A4FF00108C61A4FF0FF384FF0000494
:10035000AE425FBFA94635464E4601244FEA4603EA
:10036000A3EB0503A94600F011F91B4306D4012CA9
:100370000CBFC9194044A3EB4503F6E7012C0CBFA1
:100380004044C91903EB4603B9F10109EBD1BDE8BB
:10039000FF833BB51D460346FFF7BDFF2B460546D1
:1003A0001846FFF7B8FF284625460C46FFF7B3FF6F
:1003B0002C462146FFF7AFFF3BBDBDE8FF414FF0A4
:1003C00000082646002E1DD04FEA560606EB5606BC
:1003D00006EB161606EB162606EB16464FEAD60671
:1003E0004FF00A0706FB07F3A4EB03030A2B58BFE1
:1003F000013606FB07F3A4EB030780B408F10108FC
:100400003446DEE7454509D008D44FF0300300F00C
:1004100007FA01F10701A5F10105F3E7B8F1000FB3
:1004200009D008BC03F1300300F0FAF901F107012B
:10043000A8F10108F2E7BDE8FF810000000000001C
:100440003FB54FF000004FF00101DFF8C02411600C
:10045000DFF8BC241160DFF8BC24DFF8BC34546A38
:1004600043EA04035362DFF8B434146844EA030334
:100470001360DFF8AC34946844EA03039360DFF858
:10048000A424DFF8A434146843EA0403136000F0E2
:1004900036F800F03CF800F042F84FF00100FFF7AA
:1004A000EEFE00F040F84FF0210500F019F84FF093
:1004B000C10500F015F84FF0060500F011F84FF0F7
:1004C000130500F00DF84FF0200500F009F84FF08B
:1004D0000C0500F005F800F00BF800F014F83FBD33
:1004E000DFF84024936813F0020FFBD0D56070470B
:1004F000DFF83024936813F0800FFBD17047DFF8EA
:100500002C2410607047DFF8242411607047DFF856
:10051000202410607047DFF8182411607047DFF85E
:10052000142410607047DFF80C241160704707B482
:100530004FF000004FF07E01FF4A42F8040B0139F2
:10054000FBD107BC704777B54FF000004FF00101B9
:10055000FFF7D5FFFFF7DBFF4FF04005FFF7C0FFC8
:100560004FF08005FFF7BCFFFFF7C2FFFFF7D3FF97
:100570004FF4FC74F04E16F8015BFFF7B1FF013C3D
:10058000F9D1FFF7B5FFFFF7BEFF77BD3FB53028C4
:1005900019D5542917D54FEAD0034FF0540403FB63
:1005A00004F303EB0105E44C25442C784FF00103E0
:1005B00000F0070003FA00F3012A0EBF1C43C3F149
:1005C000FF031C402C703FBD000000000000000035
:1005D000000000000000002F0000000000030003E6
:1005E0000000143E143E140012257F291200130946
:1005F000043211001A25357A0000000300000000C3
:100600000000001E2100211E00000000140814003C
:10061000000008083E0808004030000000000808FC
:10062000080800000020000000002018040300005B
:100630001E2525291E0020223F202000322929299D
:100640002600122121251A001814123F1000272518
:10065000252519001E25252518000101390503004F
:100660001A2525251A00062929291E000012000036
:100670000000C0B280808000000814220000141422
:1006800014140000002214080000020129060000D2
:100690000000000000003C0A090A3C003F25252517
:1006A0001A001E21212112003F2121120C003F259A
:1006B000252521003F05050501001E2129291A00D5
:1006C0003F0404043F0000213F2100001020211FAF
:1006D00001003F040A1120003F20202020003F029B
:1006E0000C023F003F0204083F001E2121211E0092
:1006F0003F09090906001E2129313E403F09091919
:10070000260012252529120001013F0101001F20AA
:1007100020201F00031C201C03001F2018201F0086
:10072000310A040A31000304380403003129252367
:1007300021000000003F2100030418200000213F99
:1007400000000000040201020400202020202000FC
:100750000001020000000000000000000000000096
:100760003C0A090A3C003F25252911003F25252583
:100770001A003F0101010100603C223F60003F255B
:1007800025252100310A3F0A3100122121251A00B6
:100790003F1008043F003F1009043F003F040A11C6
:1007A0002000201E01013F003F0204023F003F04E1
:1007B00004043F001E2121211E003F0101013F00D2
:1007C0003F09090906001E212121120001013F01F4
:1007D0000100132424241F001C123F121C00310AA4
:1007E000040A31003F2020203F60070808083F002E
:1007F0003F203F203F003F203F203F60013F242417
:1008000018003F2438003F00003F24241800122124
:1008100025251E003F041E211E00261909093F0040
:100820002DE9FF5F30286FD554296DD5002A0FD1EF
:1008300007B44FF00804A1F10101A0F101004FF04D
:100840000102FFF7A3FE00F10100013CF9D107BC52
:100850007F2B47BFAFF2882C203BAFF2FC0CC03B94
:1008600000F007044FF00707A7EB04044FEAD00598
:100870004FF000064FF0060703FB07F8B044E044D2
:1008800098F80080002A09D1C8F1FF0807B4A0F148
:1008900001004FF00102FFF779FE07BC08F07F0866
:1008A000DFF894904FF0540707FB05F7B9448944EB
:1008B000C4F1070A08FA0AFBD9F800A04AEA0B0BB0
:1008C00089F800B0072C17D005F10105062D13D0CB
:1008D000DFF864904FF0540707FB05F7B9448944EB
:1008E000A5F1010504F1010A28FA0AFBD9F800A0D4
:1008F0004AEA0B0B89F800B001F10101542903D534
:1009000006F10106062EB5D1BDE8FF9F0406474259
:10091000380847420004024000005050000040994F
:100920000000C0FF0038004044C30000AC824042D9
:0C093000B0824042B8824042100000201B
:0400000508000000EF
:00000001FF
