:020000020000FC
:1000000027C15365617263682061646472657373AC
:100010002049324320646576696365206F6E204114
:10002000546D65676133323870622000D09FD0BE56
:10003000D0B8D181D0BA2049324320D183D181D1E7
:1000400082D180D0BED0B9D181D182D0B2D0B020FF
:10005000D0BDD0B0D187D0B0D0BBD181D18F210A53
:100060000A00D090D0B4D180D0B5D18120D183D135
:1000700081D182D180D0BED0B9D181D182D0B2D04D
:10008000B03A20306200D09DD0B5D18220D0BDD012
:10009000B0D0B9D0B4D0B5D0BDD0BDD18BD1852032
:1000A000D183D181D182D180D0BED0B9D181D1824A
:1000B000D0B221000A0AD09FD0BED0B8D181D0BA28
:1000C0002049324320D183D181D182D180D0BED08A
:1000D000B9D181D182D0B220D0B7D0B0D0B2D0B512
:1000E000D180D188D191D0BD210A0A000AD09DD0FB
:1000F000B5D0BFD180D0B5D0B4D0B2D0B8D0B4D004
:10010000B5D0BDD0BDD0B0D18F20D0BED188D0B8B1
:10011000D0B1D0BAD0B0210A0A00F8940F931F933F
:100120002F9328E11AE600E0015010402040E0F74C
:100130002F911F910F9178940895F8940F931F9326
:100140002F932CE015E300E0015010402040E0F731
:100150002F911F910F9178940895F8940F931F9306
:100160002F9322E011E700E0015010402040E0F71B
:100170002F911F910F91789408950F931F932F93B0
:100180000093C4001093C50002E00093C00008E192
:100190000093C10006E00093C2002F911F910F91C0
:1001A00008951F931091C00015FFFCCF1F9100937D
:1001B000C60008951F931091C00017FFFCCF1F9138
:1001C0000091C60008950591003011F0EADFFBCFE1
:1001D00008951F9311271093B9000093B8003C9A1B
:1001E0003D9A449A459A1F9108950F9304EA00930B
:1001F000BC000CD00F9108950F9304E90093BC004C
:100200000091BC0004FDFCCF0F9108950091BC004B
:1002100007FFFCCF08951F930093BB0014E81093D1
:10022000BC00F4DF1F9108950F93913009F002C0D4
:1002300004EC01C004E80093BC00E8DF1091BB00AF
:100240000F9108950F93000FE6DFE0DF0F910895FF
:100250004FEF4DBF48E04EBFE0E0F1E000270193D3
:10026000F930E9F7E030D9F7EDE1FF27F083EA95BF
:10027000E9F7EE27FF27259A07E610E07EDFECE29C
:10028000F0E0A1DF00E2A5DF01D0FFCF0F931F93C5
:100290002F9318E02227A9DF0091B900087F0830CA
:1002A00009F404C0003109F401C02CC0022FCADFD8
:1002B0000091B900087F083139F09EDF239520387E
:1002C00008F4E9CF222712C097DFE2E6F0E00E94AF
:1002D000E3008894221F08F403C000E362DF02C039
:1002E00001E35FDF1A95103029F0F3CFE6E8F0E084
:1002F0000E94E300E4EBF0E00E94E3002F911F91E5
:100300000F910895ECEEF0E05EDF2D9A26DF2D9838
:0403100024DFFBCF1C
:00000001FF
