:020000020000FC
:10000000DDC05465737420535049204D617374658D
:1000100072206D6F6465206F6E2041546D6567615D
:10002000333238702F4C4754384633323850200022
:100030000AD09FD180D0BED0B2D0B5D180D0BAD0B6
:10004000B020D180D0B0D0B1D0BED182D18B2053DE
:100050005049210A0A000AD09AD0BED0BDD0B5D1ED
:100060008620D0BFD0B5D180D0B5D0B4D0B0D187A4
:10007000D0B820D0B1D0B0D0B9D182D0B021200A30
:100080000A000AD09DD0B5D0BFD180D0B5D0B4D0B1
:10009000B2D0B8D0B4D0B5D0BDD0BDD0B0D18F2003
:1000A000D0BED188D0B8D0B1D0BAD0B0210A0A0021
:1000B000F8940F931F932F9321E618EA00E0015064
:1000C00010402040E0F72F911F910F9178940895F0
:1000D000F8940F931F932F9320E314ED00E0015049
:1000E00010402040E0F72F911F910F9178940895D0
:1000F000F8940F931F932F9329E014EC00E0015024
:1001000010402040E0F72F911F910F9178940895AF
:100110000F931F932F9320E82093610020E02093FA
:1001200061000093C4001093C50002E00093C0007A
:1001300008E10093C10006E00093C2002F911F91D7
:100140000F9108951F931091C00015FFFCCF1F91D0
:100150000093C60008951F931091C00017FFFCCFB5
:100160001F910091C60008950591003011F0EADF5B
:10017000FBCF08950F931F932F932FE224B920E50F
:100180000DC010E00113236011E00113226012E0A2
:100190000113216013E00113206001C023602CBD16
:1001A00020E02DBD2F911F910F91089500932E00F7
:1001B000000000912D0007FFFCCF08954FEF4DBFC9
:1001C00048E04EBFE0E0F1E000270193F930E9F7A5
:1001D000E030D9F7EDE1FF27F083EA95E9F7EE2764
:1001E000FF2701E210E094DFE0E3F0E0BDDF00E094
:1001F000C1DF0AEADBDF08E4A5DF05E6A3DF0CE6E2
:10020000A1DF0CE69FDF0FE69DDF0AE09BDF0AE03F
:1002100099DFE6E5F0E0A8DF01C0FFCF40E244B996
:10022000E2E8F0E0A1DF2D9A63DF2D9861DFFBCFDC
:00000001FF
